:1000000025C049C048C047C046C0F6C044C043C030
:1000100042C041C040C03FC03EC03DC03CC00102E4
:100020000000040000000000000000003800000094
:100030000000370002020202020202020202010272
:1000400004081020200410085201440111241FBE8E
:10005000CFE5D2E0DEBFCDBF20E0A6E6B0E001C034
:100060001D92AB39B207E1F710E0A0E6B0E0E8E09E
:10007000FBE002C005900D92A636B107D9F710E05B
:10008000C5E2D0E003C02197FE01FDD3C432D10701
:10009000D1F78CD12DC5B4CFCF93DF9390E0FC0185
:1000A000E25CFF4F24918C5C9F4FFC01849188237C
:1000B000D1F090E0880F991FFC01E25DFF4FA59100
:1000C000B491FC01E85DFF4FC591D49161110EC060
:1000D0009FB7F8948C91E22FE0958E238C93288122
:1000E000E223E8839FBFDF91CF9108958FB7F89403
:1000F000EC91E22BEC938FBFF6CFCF93DF9300D040
:1001000000D0CDB7DEB73FB7F89480917E009091D4
:100110007F00A0918000B091810022B708B601FE57
:1001200005C02F3F19F00196A11DB11D3FBFBA2F89
:10013000A92F982F8827820F911DA11DB11D9C0109
:10014000AD0163E0220F331F441F551F6A95D1F79D
:10015000CA01B9010F900F900F900F90DF91CF91CE
:1001600008950F931F93CF93DF938C0180918A00A2
:1001700090918B0024D490918F0080918C009817DF
:10018000F9F084E090E0B8011BD3D82FC92F8093F9
:100190008500909386007DD390938B0080938A0096
:1001A000009789F04D2F5C2F70E060E09AD40093A7
:1001B000830010938400DF91CF911F910F910895D8
:1001C00083E090E0E0CF10928600109285001092BC
:1001D000840010928300EFCF9C0190E080E0C19AF0
:1001E00048E24A95F1F7C19848E24A95F1F701963D
:1001F00028173907A1F708951F921FB61F921124DF
:100200002F933F938F939F93AF93BF9380917A00E7
:1002100090917B00A0917C00B0917D00309179009D
:1002200026E0230F2D3750F50296A11DB11D209316
:10023000790080937A0090937B00A0937C00B09328
:100240007D0080917E0090917F00A0918000B09110
:1002500081000196A11DB11D80937E0090937F00C7
:10026000A0938000B0938100BF91AF919F918F9137
:100270003F912F911F901FBE1F90189529E8230FC3
:100280000396A11DB11DD3CF80918A0090918B0060
:1002900096D3809187009091880097FD02C060E01E
:1002A000FBCE08950F931F93CF93DF93109282009C
:1002B0001092890010928B0010928A001092900088
:1002C00010929100109292001092930081E080931E
:1002D0008F0080938C0010928D0082E080938E00BE
:1002E00081E090E03EDF80918200882341F08091A0
:1002F00087009091880097FD02C060E0CDDE82E02B
:1003000090E0909388008093870000E410E0C6E3BB
:10031000D0E080918200882329F161E082E0BCDE98
:10032000E0E2F0E08491F8019491FE01249122230F
:10033000C9F0882341F0833071F158F5813079F1AB
:10034000823009F430C0E22FF0E0EE0FFF1FE85DCD
:10035000FF4FA591B4918FB7F8942C91909592236B
:100360009C938FBFFE01C491EC2FF0E0EE0FFF1FB6
:10037000E85DFF4F85919491909395008093940050
:10038000F801049100939600DF91CF911F910F9196
:1003900008958430C1F68CB58F7D8CBDD4CF8AB5DD
:1003A0008F778ABDD0CF8AB58F7DFBCFCDB7DEB733
:1003B0002B970FB6F894DEBF0FBECDBFB99AB89891
:1003C000C09ABA9ABB9AC298C39882E083BFBC9A7B
:1003D00086B3812C912CFAEC4F2EF8E05F2E612C25
:1003E000712CADE6CA2EA0E0DA2E33243394B2E0AD
:1003F0002B2E1AEAA12EB12CEE24EA94F12C8FE9CF
:100400009FE00197F1F700C0000016B3109511703E
:100410008091760081112BC0C49A112369F06DDEA2
:1004200060937200709373008093740090937500D2
:1004300030927600109278003EEF9312A6C088E2C8
:1004400090E0CADE07E010E0C501002E02C09595DD
:1004500087950A94E2F780FF91C08AE090E0BCDEC5
:100460000150110988F77AEA872E912C8FC08130CC
:10047000B9F5C49A112309F47EC03FDE68877987F5
:100480008A879B878091720090917300A09174007D
:10049000B0917500288539854A855B85281B390B05
:1004A0004A0B5B0BDA01C9018F379440A105B105F6
:1004B00008F4C2CF22DE688779878A879B87DC01B0
:1004C000CB01845D9E4FAF4FBF4F80936E009093E2
:1004D0006F00A0937000B093710020927600ACCFB3
:1004E000823009F0A9CF09DE688779878A879B87E0
:1004F00080916E0090916F00A0917000B09171009A
:10050000288539854A855B85281B390B4A0B5B0B8F
:10051000E3E0220F331F441F551FEA95D1F72887C8
:1005200039874A875B87CA01B901A30192016DD15E
:10053000283034F4253029F4C49810936B007CCF14
:1005400027E0C49A12160CF077CFE22F022E000C8F
:10055000FF0BEA59FF4F1083273009F06DCFE6E615
:10056000F0E080E09191890FCE16DF06D9F78093F5
:10057000770030927800109276005ECF87E592E0A7
:100580000197F1F700C000006BCF9394292D30E064
:10059000C9016BE970E014D1B70123D104E6060F5D
:1005A000C90168EB7FEF0CD1B7011BD14FEF460FAC
:1005B000C9016CE97FEF04D1B70113D16C59909157
:1005C0007800992339F0909177009A3A19F460E015
:1005D00040E00FEF2091830030918400232B09F439
:1005E0004BC010E030E020E0322F212F102F0027E9
:1005F000242BD901C801862B88879987AA87BB87B6
:10060000A90166277727012F122F232F3327A02F29
:100610009885E0918900EE2379F0F0E0CF01BA01EE
:10062000CFD0492F802F90E0BF01CAD0A92FB88525
:100630008B2F90E0BF01C4D0E0918F0020918A0001
:1006400030918B0080918C00E81721F0E20FF32F9E
:10065000F11D1082E0918C00E20FF32FF11D408319
:10066000E0918D00E20FF32FF11DA08380918E00A9
:10067000280F311DF901908380918A0090918B00A1
:10068000892B09F497C039DD462F572FBC01809183
:10069000900090919100A0919200B0919300481722
:1006A00059076A077B0748F44093900050939100E4
:1006B0006093920070939300E6CF481B590B6A0B2E
:1006C0007B0B4C32514061057105E8F2F894809142
:1006D0008500909186009A838983E0918A00F09149
:1006E0008B0081918F831B8298B380919600982B09
:1006F0009E8398B3809589238D838D818C838F8190
:1007000087FF02C08E818C835E816D814F813C8129
:100710002B8189819A8158BB262F38BB00C046FDAA
:10072000252F68BB00C058BB362F28BB00C045FD35
:10073000352F68BB00C058BB262F38BB00C044FD16
:10074000252F68BB00C058BB362F28BB00C043FD17
:10075000352F68BB00C058BB262F38BB00C042FDF8
:10076000252F68BB00C058BB362F28BB00C041FDF9
:10077000352F68BB00C058BB262F38BB00C040FDDA
:10078000252F68BB019758BB362F28BB419147FDE9
:10079000352F68BB01F64F833C832B839A83898373
:1007A0007894ABDC609390007093910080939200FA
:1007B0009093930086B3882009F421CE8A941FCEAB
:1007C0000024552704C0080E591F880F991F009751
:1007D00029F076956795B8F37105B9F7802D952FB7
:1007E0000895AA1BBB1B51E107C0AA1FBB1FA61778
:1007F000B70710F0A61BB70B881F991F5A95A9F7CA
:1008000080959095BC01CD010895052E97FB16F4B7
:1008100000940FD057FD05D014D007FC02D046F449
:1008200008C050954095309521953F4F4F4F5F4FF1
:10083000089590958095709561957F4F8F4F9F4F4C
:100840000895A1E21A2EAA1BBB1BFD010DC0AA1F11
:10085000BB1FEE1FFF1FA217B307E407F50720F029
:10086000A21BB30BE40BF50B661F771F881F991FA4
:100870001A9469F760957095809590959B01AC01ED
:10088000BD01CF010895EE0FFF1F0590F491E02DFB
:1008900009940F931F93CF93DF939C01029710F459
:1008A00022E030E0E0919900F0919A0090E080E041
:1008B000B0E0A0E0309791F4009709F445C0821BA6
:1008C000930B84309105B8F58A819B816115710580
:1008D00069F1FB0193838283FE0111C04081518144
:1008E0000281138142175307F0F04217530799F41E
:1008F000109761F012960C93129713961C933296F0
:10090000CF01DF91CF911F910F910895009399002E
:1009100010939A00F4CF009719F04817590718F46C
:10092000CA01BD01EF01DF01F801C4CF90939A0025
:1009300080939900D1CFFE01E80FF91F21933193E5
:10094000029799838883DCCF8091970090919800DB
:10095000892B41F4809162009091630090939800FC
:10096000809397008091600090916100009741F41E
:100970008DB79EB74091640050916500841B950B24
:1009800040919700509198004817590708F0B8CF48
:10099000841B950B8217930708F4B2CFB9016E5FE1
:1009A0007F4F8617970708F4ABCF640F751F7093BE
:1009B000980060939700FA0121933193A1CFCF93D0
:1009C000DF939C010097E9F0FC01329713821282B9
:1009D000C0919900D0919A00DE0190E080E02097CC
:1009E000A1F480819181280F391F80919700909107
:1009F00098008217930709F067C0F0939800E0937E
:100A00009700DF91CF910895DA01AE17BF0708F084
:100A100041C012964D915C911397CD01411551053E
:100A200099F7DC011396FC93EE9312974D915D912B
:100A3000A40FB51FEA17FB0781F4208131812E5FD7
:100A40003F4F240F351FDC0111963C932E932281DA
:100A5000338113963C932E931297B0E0A0E08A81E5
:100A60009B810097B1F5FE0181919191E80FF91FEB
:100A700080919700909198008E179F0711F610971C
:100A800059F510929A0010929900D0939800C09353
:100A90009700B7CFB383A28340815181240F351FC4
:100AA000A217B30771F44E5F5F4F2D913C911197E0
:100AB000420F531F5183408312962D913C913383F3
:100AC0002283009709F0ADCFF0939A00E09399004C
:100AD00098CFDE01EC01C3CF13961C921E921297A1
:100AE000D4CFDC0101C06D9341505040E0F7089530
:100AF00010E0C5E2D0E003C0FE01C5DE2196C6329B
:080B0000D107D1F7F894FFCFF3
:060B080000009B0020002C
:00000001FF
